S05B0000433A5C55736572735C36313431355C4465736B746F705C7472656173757265466F726573745C50726F6A6563745F446F63735C457865726369736520335C657865726369736520335C62696E5C50726F6A6563742E616273B7
S123100000000000737472696E670D74657374696E6700000000000000000000000000002A
S12310200000000000000000000000000000000000000000000000000000000000000000AC
S123104000000000000000000000000000000000000000000000000000000000000000008C
S123106000000000000000000000000000000000000000000000000000000000000000006C
S123108000000000000000000000000000000000000000000000000000000000000000004C
S12310A000000000000000000000000000000000000000000000000000000000000000002C
S12310C000000000000000000000000000000000000000000000000000000000000000000C
S12310E00000000000000000000000000000000000000000000000000000000000000000EC
S12311000000000000000000000000000000000000000000000000000000000000000000CB
S12311200000000000000000000000000000000000000000000000000000000000000000AB
S123114000000000000000000000000000000000000000000000000000000000000000008B
S123116000000000000000000000000000000000000000000000000000000000000000006B
S123118000000000000000000000000000000000000000000000000000000000000000004B
S12311A000000000000000000000000000000000000000000000000000000000000000002B
S12311C000000000000000000000000000000000000000000000000000000000000000000B
S12311E00000000000000000000000000000000000000000000000000000000000000000EB
S12312000000000000000000000000000000000000000000000000000000000000000000CA
S12312200000000000000000000000000000000000000000000000000000000000000000AA
S123124000000000000000000000000000000000000000000000000000000000000000008A
S123126000000000000000000000000000000000000000000000000000000000000000006A
S123128000000000000000000000000000000000000000000000000000000000000000004A
S12312A000000000000000000000000000000000000000000000000000000000000000002A
S12312C000000000000000000000000000000000000000000000000000000000000000000A
S12312E00000000000000000000000000000000000000000000000000000000000000000EA
S1151300000000000000000000000000000000000000D7
S1234000CF400010EF180B9C00D1180B0000D0180B0C00D3180B0400D3CE1012164051C6B2
S123402064164047180B0800D3CE101216403120E34FD480FC180D0000D7E60008B6100AAA
S12340401816270220EB3DCEEA600435FD0431F73D4FD420FCD6D76B0008B6100A18162782
S10740600220EE3D0B
S105FFFE4000BD
S9030000FC
