S0740000433A5C55736572735C36313431355C4465736B746F705C7472656173757265466F726573745C50726F6A6563745F446F63735C457865726369736520345C496E746567726174696F6E5C62696E5C50726F6A6563742E61627348435331325F53657269616C5F4D6F6E69746F722E61627319
S123100000000000737472696E670D00000000000000000000000000000000000000000028
S12310200000000000000000000000000000000000000000000000000000000000000000AC
S123104000000000000000000000000000000000000000000000000000000000000000008C
S123106000000000000000000000000000000000000000000000000000000000000000006C
S123108000000000000000000000000000000000000000000000000000000000000000004C
S12310A000000000000000000000000000000000000000000000000000000000000000002C
S12310C000000000000000000000000000000000000000000000000000000000000000000C
S12310E00000000000000000000000000000000000000000000000000000000000000000EC
S12311000000000000000000000000000000000000000000000000000000000000000000CB
S12311200000000000000000000000000000000000000000000000000000000000000000AB
S123114000000000000000000000000000000000000000000000000000000000000000008B
S123116000000000000000000000000000000000000000000000000000000000000000006B
S123118000000000000000000000000000000000000000000000000000000000000000004B
S12311A000000000000000000000000000000000000000000000000000000000000000002B
S12311C000000000000000000000000000000000000000000000000000000000000000000B
S12311E00000000000000000000000000000000000000000000000000000000000000000EB
S12312000000000000000000000000000000000000000000000000000000000000000000CA
S12312200000000000000000000000000000000000000000000000000000000000000000AA
S123124000000000000000000000000000000000000000000000000000000000000000008A
S123126000000000000000000000000000000000000000000000000000000000000000006A
S123128000000000000000000000000000000000000000000000000000000000000000004A
S12312A000000000000000000000000000000000000000000000000000000000000000002A
S12312C000000000000000000000000000000000000000000000000000000000000000000A
S12312E00000000000000000000000000000000000000000000000000000000000000000EA
S12313000000000000000000000000000000000000000000000000000000000000000000C9
S12313200000000000000000000000000000000000000000000000000000000000000000A9
S1231340000000000000000000000000000000000000000000000000000000000000000089
S1231360000000000000000000000000000000000000000000000000000000000000000069
S1231380000000000000000000000000000000000000000000000000000000000000000049
S12313A0000000000000000000000000000000000000000000000000000000000000000029
S12313C0000000000000000000000000000000000000000000000000000000000000000009
S12313E00000000000000000000000000000000000000000000000000000000000000000E9
S10F140000000000000000000000000DCF
S1234000CF400010EF180B0000D0180B9C00D1180B0C00D31640B5C6641640EBCE100B8624
S1234020017A45001640411640D320E8A600800D270EA60080092E05A6006A40020820ECC4
S12340403DE600F1140B273F180F80412D16180F805A2D0E180F80612D0A180F807A2C04CC
S123406020002024E600180F802E26037E4501E600180F8020260886017A45000820C2869F
S1234080007A45000820BA3DE600180F805A2F02C0206B0020CEE600180F805A2E02CB20EB
S12340A06B0020C0A600C601F0450027DB2EE77E1502FD1501CE100B4FD420FCD6D7860DE8
S12340C0181627056B000820EFC60A6B0008C60D6B003DCE100B4FD480FC180D0000D7E6D8
S11B40E000860D181627030820EC3DCEEA60FD40000435FA0431F43D9A
S105FFFE4000BD
S9030000FC
